:020000040800F2
:1000000000280020150200086502000811020008FF
:100010006502000865020008650200080000000093
:100020000000000000000000000000006502000861
:100030006502000800000000650200086502000873
:1000400065020008650200086502000865020008F4
:1000500065020008650200086502000865020008E4
:1000600065020008650200086502000865020008D4
:1000700065020008650200086502000865020008C4
:1000800065020008650200086502000865020008B4
:1000900065020008650200086502000865020008A4
:1000A0006502000865020008650200086502000894
:1000B0006502000865020008650200086502000884
:1000C0006502000865020008650200086502000874
:1000D0006502000865020008650200086502000864
:1000E00065020008650200080000000065020008C3
:1000F0006502000865020008650200086502000844
:100100006502000865020008650200086502000833
:100110006502000865020008650200086502000823
:100120006502000865020008650200086502000813
:100130000348044B834202D0034B03B11847704776
:1001400000000020000000200000000005480649D3
:100150000B1AD90F01EBA301491002D0034B03B1D5
:100160001847704700000020000000200000000039
:1001700010B5064C237843B9FFF7DAFF044B13B1EF
:100180000448AFF300800123237010BD000000205D
:10019000000000006802000808B5044B1BB10449C8
:1001A0000448AFF30080BDE80840CFE7000000003E
:1001B000040000206802000870B50D4E0D4D761B3E
:1001C000B61006D0002455F8043B01349847A642E7
:1001D000F9D1094E094D00F047F8761BB61006D04C
:1001E000002455F8043B01349847A642F9D170BD6C
:1001F00080020008800200088402000880020008D3
:10020000024A936943F010039361FEE70010024035
:10021000704700000D488546AFF300800C480D493B
:100220000D4A002302E0D458C4500433C4188C4251
:10023000F9D30A4A0A4C002301E013600432A242B7
:10024000FBD3FFF7B9FFFFF7DBFFFEE70028002035
:1002500000000020000000208802000800000020AC
:100260001C000020FEE70000F8B500BFF8BC08BC89
:100270009E467047F8B500BFF8BC08BC9E46704764
:0402800099010008D8
:0402840071010008FC
:0400000508000215D8
:00000001FF
