:020000040800F2
:1000000000280020110200086102000861020008B7
:10001000610200086102000861020008000000009F
:100020000000000000000000000000006102000865
:10003000610200080000000061020008610200087F
:100040006102000861020008610200086102000804
:1000500061020008610200086102000861020008F4
:1000600061020008610200086102000861020008E4
:1000700061020008610200086102000861020008D4
:1000800061020008610200086102000861020008C4
:1000900061020008610200086102000861020008B4
:1000A00061020008610200086102000861020008A4
:1000B0006102000861020008610200086102000894
:1000C0006102000861020008610200086102000884
:1000D0006102000861020008610200086102000874
:1000E00061020008610200080000000061020008CF
:1000F0006102000861020008610200086102000854
:100100006102000861020008610200086102000843
:100110006102000861020008610200086102000833
:100120006102000861020008610200086102000823
:100130000348044B834202D0034B03B11847704776
:1001400000000020000000200000000005480649D3
:100150000B1AD90F01EBA301491002D0034B03B1D5
:100160001847704700000020000000200000000039
:1001700010B5064C237843B9FFF7DAFF044B13B1EF
:100180000448AFF300800123237010BD000000205D
:10019000000000006402000808B5044B1BB10449CC
:1001A0000448AFF30080BDE80840CFE7000000003E
:1001B000040000206402000870B50D4E0D4D761B42
:1001C000B61006D0002455F8043B01349847A642E7
:1001D000F9D1094E094D00F045F8761BB61006D04E
:1001E000002455F8043B01349847A642F9D170BD6C
:1001F0007C0200087C020008800200087C020008E3
:1002000082B005230193019B019A13440193FAE7FD
:100210000D488546AFF300800C480D490D4A002378
:1002200002E0D458C4500433C4188C42F9D30A4AAB
:100230000A4C002301E013600432A242FBD3FFF713
:10024000BBFFFFF7DDFFFEE70028002000000020D5
:100250000000002084020008000000201C00002094
:10026000FEE70000F8B500BFF8BC08BC9E4670472A
:0C027000F8B500BFF8BC08BC9E46704703
:04027C0099010008DC
:040280007101000800
:0400000508000211DC
:00000001FF
